:020000040800F2
:10000000680700209D010008C7210008691F00083B
:10001000C5210008D5020008C12600080000000024
:10002000000000000000000000000000CB210008DC
:100030009D03000800000000C9210008CD21000830
:10004000B7010008B7010008B7010008B7010008B0
:10005000B7010008B7010008B7010008B7010008A0
:10006000B7010008B7010008B7010008B701000890
:10007000B7010008B7010008B7010008B701000880
:10008000B7010008B7010008B7010008F102000835
:10009000D9020008E5020008B7010008B70100080E
:1000A000B7010008B7010008B7010008B701000850
:1000B0007522000881220008B7010008B701000876
:1000C000B7010008B7010008B7010008B701000830
:1000D000B70100089D260008A9260008B5260008DB
:1000E000B7010008B7010008B7010008B701000810
:1000F000B7010008B7010008B7010008B701000800
:10010000B7010008B7010008B7010008B7010008EF
:10011000B7010008B7010008B7010008B7010008DF
:10012000B7010008B7010008B7010008B7010008CF
:10013000B7010008B7010008B7010008550300081F
:100140003D03000849030008B7010008B701000893
:10015000B7010008B7010008B7010008B70100089F
:10016000B7010008B7010008B7010008B70100088F
:10017000B7010008B7010008B7010008000000003F
:10018000B7010008B7010008DFF80CD000F090F8C4
:10019000004800479128000868070020064880476B
:1001A00006480047FEE7FEE7FEE7FEE7FEE7FEE75C
:1001B000FEE7FEE7FEE7FEE765220008890100088A
:1001C0002DE9F05F0546002092469B46884606468C
:1001D000814640241BE0284641464746224600F01F
:1001E00057F853465A46C01A914110D31146184643
:1001F000224600F03EF82D1A67EB01084F462246D2
:100200000120002100F035F817EB00094E41201EB7
:10021000A4F10104DFDC484631462A464346BDE8E6
:10022000F09FD2B201E000F8012B491EFBD27047CB
:100230000022F6E710B513460A4604461946FFF7B2
:10024000F0FF204610BD30B50B46014600202022AD
:10025000012409E021FA02F59D4205D303FA02F5D3
:10026000491B04FA02F52844151EA2F10102F1DC33
:1002700030BD202A04DB203A00FA02F1002070474A
:100280009140C2F1200320FA03F3194390407047D4
:10029000202A04DB203A21FA02F00021704721FADB
:1002A00002F3D040C2F12002914008431946704742
:1002B000064C074D06E0E06840F0010394E80700B3
:1002C00098471034AC42F6D3FFF762FF1C290008B0
:1002D0003C290008FEE70000014800F0D4B9000006
:1002E000A4010020014800F0CEB90000A4010020C4
:1002F000014800F0C8B90000A40100201FB50AA4FD
:1003000017CC8DE817000C4841F214316A46416061
:10031000042181600021C1600F2101610146503834
:1003200000F051F81FBD000043414ED7DCCFDF2D58
:10033000C6F4B6AF00000000F4010020014800F050
:10034000A2B90000CC010020014800F09CB90000D7
:10035000CC010020014800F096B90000CC0100203B
:1003600000B58BB0002001210590CDE90601009079
:100370000290039004900E20CDE9081069460648CB
:1003800000F086F8044800F04DFC0221024800F01D
:1003900008F80BB000BD0000A4010020704772B641
:1003A000FEE790F82020012A07D0022A05D0416AF2
:1003B00041F48021416201207047006842690A438C
:1003C000426100207047F0B590F820500468A4689E
:1003D000012D05D0022D03D0416A41F4802153E064
:1003E00014F0406F01D1E5004BD5C4F30164022C39
:1003F00003D9416A41F4000146E00125A5401D6092
:100400008D684FF4C0739DB1CE6835434E6845EAA0
:10041000C605066803EB0417F5514FF4C27507686B
:1004200005EB04150E697E51097D012905D009E00F
:100430000E88CD6845EA4655EBE701684E5946F40B
:1004400080764E511179D2F805504FF4C67641EAC4
:100450000525016806EB04168D511178D2F80120AC
:100460004FF4C47541EA0221026805EB04155151AD
:10047000006803EB0411425842F001024250002090
:10048000F0BD416A41F4001141620120F0BD00005D
:1004900010B590F82020012A07D0022A05D0416A21
:1004A00041F480214162012010BD3B48D0F8002278
:1004B00042F00102C0F80022D0F8002222F47C525F
:1004C000C0F80022D0F800224B6A42EA0322C0F8AA
:1004D00000220A7D02F01F0301229A40D0F81C324C
:1004E0009343C0F81C32CB69B3B9D0F80C329343B4
:1004F000C0F80C328C894B6864F31F434C6900EBE5
:10050000C404C4F840320C890B6864F31F434C697F
:1005100000EBC404C4F84432CB69012B16D1D0F8E7
:100520000C321343C0F80C320C884B6864F31F4341
:100530004C6900EBC404C4F840320C89CB6864F306
:100540001F434C6900EBC404C4F844328B69002B90
:10055000D0F804320ED01343C0F804320B69002BDC
:10056000D0F8143208D01343C0F81432096A0129B4
:1005700004D008E09343EFE79343F5E7D0F81C126B
:100580001143C0F81C12D0F8001221F00101C0F88C
:100590000012002010BD000000640040704730B51C
:1005A00090F82040012C05D0022C03D0416A41F480
:1005B00080215DE00468002955D02469A40754D047
:1005C0004FF4D874056804EB01142D5915F0040597
:1005D000956005682D594ED0ED08556005682C5979
:1005E00004F00204D4604FF4DA74056804EB0114DB
:1005F0002D5905F00F05156105682D59C5F307251F
:10060000956105682C59240C54614FF4DC72046820
:1006100002EB0112A4581C700468A458240A5C70F0
:100620000468A458240C9C700468A258120EDA7056
:100630004FF4DE72046802EB0112A4581C710468C6
:10064000A458240A5C710468A458240C9C710468A2
:10065000A258120EDA71006881B1016941F02001DF
:100660000161002030BDE468A8E7416A41F400114F
:100670004162012030BD6D0D1560AFE7C16841F0EA
:100680002001C160EDE72DE9F05F05460068002418
:100690004669D0F804908768D0F80CB0D0F810A064
:1006A000D0F81880F10748D0F90714D001218160F3
:1006B000B80703D5284600F0E2FA0CE0780702D527
:1006C0004FF4006407E0380702D54FF4805402E08D
:1006D000284600F0D3FAF80516D529684FF4807043
:1006E0008860B80503D5284600F0CBFA0CE0780501
:1006F00002D544F4005407E0380502D544F48044A0
:1007000002E0284600F0BCFAF80316D529684FF439
:1007100080308860B80303D5284600F0B4FA0CE0B6
:10072000780302D544F4004407E0380302D544F4CA
:10073000803402E0284600F0A5FA300707D55FEACA
:10074000CB6004D52968102044F40074C860700799
:100750004FF0080707D55FEA0B7004D52868C7601B
:10076000284600F0BBF9B00706D52868C0688007A6
:1007700002D0284600F0B4F9700607D55FEACA60D7
:1007800004D52968102044F480640861B00607D5B8
:100790005FEA0A7004D528680761284600F03EFA2F
:1007A000F00606D528680069800702D0284600F0C8
:1007B00036FAB00308D55FEAC96005D5296810206C
:1007C0004860284600F02CFAF00307D55FEA09706C
:1007D00004D528684760284600F056FA300446D50C
:1007E0005FEA497040D5F00504D55FEAC87001D0D2
:1007F00044F00104B00504D55FEA887001D544F0E7
:100800000204700504D55FEA487001D544F0040481
:10081000300529D518F0700F26D008F07000402858
:1008200015D006DC102809D020280AD0302816D18F
:100830000AE050280ED0602811D10EE044F00804E0
:100840000DE044F010040AE044F0200407E044F016
:10085000400404E044F0800401E044F4807428681B
:10086000816921F070018161296804204860002CB1
:1008700005D0686A204368622846FFF78FFEBDE80E
:10088000F09F70B5040003D094F8200010B104E08C
:10089000012070BD204600F081F82068016841F019
:1008A0000101016000F044FB0546052604E000F06C
:1008B0003FFB401B0A2811D820684068C007F6D0CB
:1008C0002068016821F00201016000F031FB05465B
:1008D0000BE000F02DFB401B0A2806D9606A40F4AB
:1008E0000030606284F82060D2E7206840688007AA
:1008F000EFD4207E0128206801683DD021F08001DE
:100900000160607E01282068016838D021F0400134
:100910000160A07E01282068016833D021F0200109
:100920000160E07E0128206801682ED041F01001AE
:100930000160207F01282068016829D021F008018A
:100940000160607F01282068016824D021F0040143
:100950000160D4E902010843D4E9041211430843B9
:100960006168491E08432168C86100206062012057
:1009700084F82000002070BD41F08001C0E741F004
:100980004001C5E741F02001CAE721F01001CFE79F
:1009900041F00801D4E741F00401D9E7F0B587B090
:1009A000044614216846FFF743FC474B4748DFF8ED
:1009B00014E11968D4F800C0444A02250326092727
:1009C00010300024491CF44534D11960012907D1A5
:1009D000016841F000710160006800F0007005904E
:1009E000106840F001001060106802AB00F00100D8
:1009F00005904FF4C050CDE9000583E8D00069466A
:100A0000334800F09DF900221146132000F000FB4E
:100A1000132000F0EFFA00221146142000F0F8FA3B
:100A2000142000F0E7FA00221146152000F0F0FA39
:100A3000152043E0DFF89CE0F44541D1D0F800C038
:100A40004CF0806CC0F800C0D0F800C001290CF058
:100A5000806CCDF814C0196007D1016841F00071B5
:100A60000160006800F000700590106840F002001E
:100A70001060106802AB00F0020005904FF4405087
:100A8000CDE9000583E8D0006946134800F058F925
:100A9000002211463F2000F0BBFA3F2000F0AAFAE6
:100AA00000221146402000F0B3FA402000F0A2FAE4
:100AB00000221146412000F0ABFA412000F09AFAE2
:100AC00007B0F0BD00640040040000203038024050
:100AD000000002400068004000040240704700002F
:100AE00010B5214C0F2004F11C03206140F201607D
:100AF00020600020A0600146E06022461B48FFF70E
:100B00004EFD1BA0216801F0DDFD1BA0A16801F0D6
:100B1000D9FD1CA0E16801F0D5FD1DA0216901F0FF
:100B2000D1FD1C341DA0217801F0CCFD61781FA0FF
:100B300001F0C8FDA17821A001F0C4FDE17823A057
:100B400001F0C0FD217925A001F0BCFD617927A04D
:100B500001F0B8FDA17929A001F0B4FDE179BDE86B
:100B600010402AA001F0AEBD1C010020A40100200D
:100B700069643A25640D0A006964653A25640D0AC2
:100B8000000000007274723A25640D0A0000000033
:100B90006C656E3A25640D0A00000000727862757B
:100BA000665B305D3A25640D0A000000727862755C
:100BB000665B315D3A25640D0A000000727862754B
:100BC000665B325D3A25640D0A000000727862753A
:100BD000665B335D3A25640D0A0000007278627529
:100BE000665B345D3A25640D0A0000007278627518
:100BF000665B355D3A25640D0A0000007278627507
:100C0000665B365D3A25640D0A00000072786275F5
:100C1000665B375D3A25640D0A0000007047704737
:100C20007047000070B5044690F82000012804D0F9
:100C3000606A40F40020606218E0022084F820001E
:100C40002068016821F00101016000F071F905469A
:100C50000EE000BF00F06CF9401B0A2808D9606A5A
:100C600040F400306062052084F82000012070BD4F
:100C700020684068C007EDD1606270BD7047704762
:100C8000704770477047704770472DE9F041044640
:100C9000876D00F04DF9064694F8350000250228CE
:100CA00006D08020606584F834500120BDE8F081D2
:100CB0002068016821F0160101602068416921F077
:100CC00080014161206C08B9A06C20B120680168E6
:100CD00021F0080101602068016821F00101016034
:100CE0000CE000F025F9801B052807D9202060655D
:100CF000032084F8350084F83450D7E72068006872
:100D0000C007EED194F85C103F208840B860012005
:100D100084F8350084F834500020C7E790F8351087
:100D2000022903D08021416501207047052180F808
:100D300035100068016821F0010101600020704752
:100D40002DE9F84FDFF8BCA10022012503264FF062
:100D50000F090AF1040BAAF1040E00BF0B6805FA93
:100D600002F42340A34270D10F7907F00307012F4B
:100D700001D0022F16D187684FEA420806FA08FC14
:100D800027EA0C07D1F80CC00CFA08FC4CEA070C57
:100D9000C0F808C04768A7430C79C4F30014944016
:100DA0003C4344600C79E443A4070AD0C4684FEA8A
:100DB000420C06FA0CF7BC438F6807FA0CF727437E
:100DC000C7600C7904F00304022C12D1D40800EBA4
:100DD000840CDCF820405707FF0E09FA07F824EAD4
:100DE0000804D1F8108008FA07F848EA0408CCF89B
:100DF000208004684FEA420C06FA0CF7BC430F79D6
:100E000007F0030707FA0CF7274307604C6814F450
:100E1000403F70D03C4C276847F4804727602468E7
:100E200022F0030704F480440094384C07EB040CD0
:100E3000DCF8084897074FEA177809FA08F7BC4327
:100E4000334FB84202D1002724E054E0314FB8427A
:100E500001D101271EE0304FB84201D1022719E02D
:100E60002E4FB84201D1032714E02D4FB84201D1D3
:100E700004270FE02B4FB84201D105270AE02A4F83
:100E8000B84201D1062705E0284FB84201D1072713
:100E900000E0082707FA08F72743CCF80878DAF8C3
:100EA00000405746D1F804C09C435FEACC2C00D5E3
:100EB0001C433C60DBF800405F46D1F804C09C4313
:100EC0005FEA8C2C00D51C433C60DEF8004077467E
:100ED000D1F804C09C435FEA8C3C00D51C433C60C5
:100EE000084F083F3C68D1F804C09C435FEACC3C03
:100EF00000D51C433C60521C102AFFF42FAFBDE804
:100F0000F88F0000083C01404438024000300140A6
:100F1000000002400004024000080240000C0240B1
:100F2000001002400014024000180240001C024061
:100F3000014880687047000008000020024881686E
:100F40000278114481607047080000200B4810B5FA
:100F5000016841F400710160016841F48061016041
:100F6000016841F480710160032000F071F80020F5
:100F700000F006F800F024F8002010BD003C02400C
:100F800070B50D4D04464FF47A712878B1FBF0F03E
:100F90000A490968B1FBF0F000F00EFB48B9102CCB
:100FA00007D200222146501E00F032F800206C606B
:100FB00070BD012070BD000008000020140000205A
:100FC0000B4882B0016841F480410160006800F480
:100FD000804000900648001F016841F08051016088
:100FE000006800F080500090052002B000F030B89A
:100FF00044380240002809DB00F01F020121914023
:101000004009800000F1E020C0F8001170470000A6
:10101000F0B40E4B1B680C46C3F30223C3F1070563
:10102000042D00D90425191D072901D2002300E051
:10103000DB1E012606FA05F1491E214099409E401B
:10104000761E16403143F0BC01F04CBB0CED00E0C5
:10105000064900F0070208684FF6FF03184040EA0F
:101060000220034A10430860704700000CED00E0C6
:101070000000FA052DE9F0470E46050065D0DFF8BF
:101080001481D8F80000F7B200F00700B04207D290
:1010900088F80070D8F8000000F00700B04254D182
:1010A00028683D4C810712D5400703D5206840F4DD
:1010B000E05020602878000703D5206840F46040A5
:1010C00020602068A96820F0F0000843206028789C
:1010D000C0072DD0304968680839012812D002288D
:1010E00013D0032811D00968890700292DDA216857
:1010F00021F0030101432160FFF71AFF814641F20D
:10110000883A0EE009688903EFE709688901ECE78E
:10111000FFF70EFFA0EB0901514502D90320BDE8FE
:10112000F0872068696800F00C00B0EB810FEFD108
:10113000D8F80010404601F00701B14207D9077006
:10114000006800F00700B04201D00120E7E72878EE
:10115000400705D52068E96820F4E0500843206086
:101160002878000706D52068296920F4604040EA05
:10117000C100206000F038F82168084AC1F303116B
:10118000515CC8400649086006480068FFF7F8FE51
:101190000020C4E7003C024008380240042900084F
:1011A000140000200C00002004480549006809686C
:1011B000044AC1F38221515CC840704714000020EA
:1011C00008380240142900080448054900680968E5
:1011D000044AC1F34231515CC840704714000020FA
:1011E0000838024014290008154810B5006810F0AE
:1011F0000C02144813D01449042A0FD0082A0ED127
:101200000F4C241F2268236802F03F025B0207D5BF
:101210002068C0F38810A0FB010106E0084610BD5D
:101220002168C1F38811A1FB00010023FEF7C8FF6C
:101230002168C1F30141491C4900B0FBF1F010BD28
:10124000083802400024F40040787D012DE9F84F71
:1012500004006ED02078DFF84C93C007A9F1040594
:101260004AD009F104000168C1F38101012908D0C5
:101270000068C0F3810002280AD1D9F800004002BA
:1012800006D52868800337D560680028E1D033E0B0
:101290006068B0F5803F10D0B0F5A02F286810D05E
:1012A00020F480302860286820F48020286060685E
:1012B000A8B1FFF73DFE06460DE0286840F48030F7
:1012C000F4E740F480202860F7E700BFFFF730FE26
:1012D000801B642873D828688003F7D50CE0FFF7DB
:1012E00027FE064605E000BFFFF722FE801B6428AC
:1012F000F0D828688003F7D42078DFF8AC82800724
:101300004FF0000A3ED5A748001D016811F00C0FF0
:1013100008D00068C0F3810002280BD1D9F8000082
:10132000400207D42868800716D5E068012800D15C
:1013300012E033E1E068B8B10120C8F80000FFF71F
:10134000F7FD064605E000BFFFF7F2FD801B02280F
:10135000C0D828688007F7D52868216920F0F800F0
:1013600040EAC10028600DE0C8F800A0FFF7E0FDEA
:10137000064604E0FFF7DCFD801B02281FD8286822
:101380008007F7D42078000722D5864F8748616907
:10139000703771B101210160FFF7CAFD064604E014
:1013A000FFF7C6FD801B022809D838688007F7D5EB
:1013B0000EE0C0F800A0FFF7BBFD064605E082E0A6
:1013C000FFF7B6FD801B02287DD838688007F7D468
:1013D0002078400768D5DFF8CCB100270BF13C0B33
:1013E000DBF80000C0000BD4DBF8001041F08051A6
:1013F000CBF80010DBF80000012700F080500090CF
:101400006B4E3068C00510D4306840F48070306096
:10141000FFF78EFD009005E0FFF78AFD0099401A66
:10142000022850D83068C005F6D55E4EA0686C36EC
:1014300001280FD00528306810D020F0010030605E
:10144000306820F004003060A068B8B1FFF770FD8C
:1014500000900FE0306840F00100F4E740F0040035
:101460003060F7E7FFF764FD0099411A41F28830D8
:10147000814266D830688007F4D50EE0FFF758FD4A
:10148000009007E0FFF754FD0099411A41F28830BF
:10149000814256D830688007F4D42FB1DBF80010B1
:1014A00021F08051CBF80010A069C8B33D49091D57
:1014B0000968C1F3810102294AD00228504607D0A9
:1014C000C8F8600000E03CE0FFF732FD04463BE076
:1014D0004746C8F86000FFF72BFD064605E000BF51
:1014E000FFF726FD801B02282BD828688001F7D43F
:1014F000D4E907010843A16A2E4A490802EB0141D9
:10150000626A41EA8211084394F82C1040EA0161B2
:10151000C9F8001001203866FFF70AFD044606E00E
:101520003EE000BFFFF704FD001B022809D8286831
:101530008001F7D534E000BFFFF7FAFC001B02285A
:1015400002D90320BDE8F88F28688001F4D427E091
:101550000128F7D0D9F80000E26900F48001914237
:101560001CD1226A00F03F01914217D147F6C071A9
:10157000626A0140B1EB821F10D1A26A4FF0FF33C3
:1015800000F4403103EB5202B1EB024F06D194F864
:101590002C1000F07060B0EB016F01D00120D1E79A
:1015A0000020CFE70438024000004742800E474247
:1015B000007000400000FFFF10B5401EB0F1807FBA
:1015C00001D3012010BD4FF0E02460610F216017AE
:1015D00001F088F80020A06107202061002010BDE4
:1015E0007047704770B590F83C20012A32D0012432
:1015F00080F83C40022280F83D2003685A689D68CC
:1016000022F070060A6832435A60134B02689A420D
:1016100014D0B2F1804F11D0104B9A420ED0104B23
:101620009A420BD00F4B9A4208D00F4B9A4205D0EA
:101630000E4B9A4202D00E4B9A4204D1496825F0D3
:1016400080031943916080F83D40002180F83C10F0
:10165000084670BD022070BD00000140000400403B
:1016600000080040000C0040000401400040014020
:101670000018004010B5040003D094F83D0010B1EC
:1016800007E0012010BD002084F83C00204600F057
:101690001FF8022084F83D00211D206800F0F6FDAF
:1016A000012084F8460084F83E0084F83F0084F866
:1016B000400084F8410084F8420084F8430084F834
:1016C000440084F8450084F83D00002010BD00006F
:1016D00008B501681448B1F1804F14D0134A914203
:1016E00020D1016841F0020101600068002200F091
:1016F0000200009011461D20FFF78AFC1D20BDE866
:101700000840FFF777BC016841F001010160006803
:10171000002200F00100009011461C20FFF778FC29
:101720001C20ECE708BD00004038024000040040E7
:1017300090F83D10012901D001207047022180F866
:101740003D100168CA6842F00102CA600068114990
:10175000884214D0B0F1804F11D00F4988420ED08A
:101760000E4988420BD00E49884208D00D49884264
:1017700005D00D49884202D00C49884204D18168C5
:1017800001F00701062903D0016841F00101016061
:1017900000207047000001400004004000080040A5
:1017A000000C0040000401400040014000180040CF
:1017B00070B5044690F83C000025012817D001269A
:1017C00084F83C60022084F83D002068826822F0A2
:1017D000770222F47F4282600868502838D00DDCFE
:1017E00020284FD005DC90B3102811D14AE0022008
:1017F00070BD302846D040280AD13BE060282FD069
:1018000070280DD0B0F5805F03D0B0F5005F12D026
:10181000012584F83D60002084F83C00284670BD16
:10182000CB68D1E90121206800F094FD206881682F
:1018300041F0770109E0CB68D1E90121206800F08F
:1018400089FD2068816841F480418160E1E719E009
:10185000CA684968206800F08FFD5021206806E0C2
:10186000CA684968206800F098FD6021206800F08F
:101870007BFDCEE7CA684968206800F07DFD402105
:101880002068F4E7226801461046F0E7704770B51B
:101890000446006801694FF00005C943890715D463
:1018A000C168C943890711D4E91E0161012020776D
:1018B000206880698007204602D0FFF7E7FF04E038
:1018C00000F098F8204600F096F825772068016926
:1018D000C943490717D4C168C943490713D46FF0F6
:1018E00004010161022020772068806910F4407FA4
:1018F000204602D0FFF7CAFF04E000F07BF8204644
:1019000000F079F8257720680169C943090716D4E2
:10191000C168C943090712D46FF0080101610420AE
:1019200020772068C0698007204602D0FFF7AEFF0D
:1019300004E000F05FF8204600F05DF825772068AD
:101940000169C943C90617D4C168C943C90613D47C
:101950006FF010010161082020772068C06910F441
:10196000407F204602D0FFF791FF04E000F042F8EC
:10197000204600F040F8257720680169C943C9076F
:1019800008D1C168C943C90704D1891E0161204635
:1019900000F032F820680169C943090609D4C1681A
:1019A000C943090605D46FF0800101612046FFF7A5
:1019B00017FE20680169C943490609D4C168C943B3
:1019C000490605D46FF040010161204600F016F889
:1019D00020680169C94389060BD4C168C9438906D7
:1019E00007D46FF0200101612046BDE87040FFF789
:1019F000F8BD70BD70477047FEF780BC70477047F8
:101A0000704710F83D1F407808437047F8B50168EB
:101A100004460868CA684B6910F00F0F4FF00005C4
:101A200059D003F0010602F49077374365D0C1071F
:101A300005D0D10503D5216C41F001012164410796
:101A400005D5D90703D0216C41F00201216481073B
:101A500005D5D90703D0216C41F0040121640107A9
:101A600007D502F02001314303D0216C41F0080179
:101A70002164216C00293AD0800604D5900602D555
:101A8000204600F0CBFC20684069216CC0F3801038
:101A9000090700D460B3204600F099FC2068406933
:101AA000400621D52068143050E8001F21F0400185
:101AB00040E80012002AF5D1A06BA8B16C4901657D
:101AC000A06BFFF72BF9002811D0A06B016D01B0BE
:101AD000BDE8F040084783060FD593060DD5204694
:101AE000BDE8F84000F09ABC2046FFF789FFF8BD3A
:101AF0002046FFF785FF2564F8BD266B2023012EC5
:101B000079D1C60677D5D60675D50868486800909D
:101B10004869400640D5A16B086840680004000C85
:101B2000EAD0A28D8242E7D9E085C869B0F5807F0E
:101B30002DD020680C3050E8001F21F4807140E85F
:101B40000012002AF5D12068143050E8001F21F05F
:101B5000010140E80012002AF5D12068143050E855
:101B6000001F21F0400140E80012002AF5D184F85E
:101B70003E30256320680C3050E8001F21F0100132
:101B800040E80012002AF5D1A06BFFF77EF8A08D87
:101B9000E18D401A81B229E0A08DE18D401A81B219
:101BA000E08D0028A8D00029A6D020680C3050E88D
:101BB000002F22F4907240E80026002EF5D1206814
:101BC000143050E8002F22F0010240E80026002ED9
:101BD000F5D184F83E30256320680C3050E8002FA2
:101BE00022F0100240E80023002BF5D12046FFF739
:101BF00006FFF8BDFFE705062BD5150629D594F895
:101C00003D002128F5D1A068B0F5805F01D12069A1
:101C1000B0B1206A411C2162216800784860E08CE4
:101C2000401E0004000CE084E3D12068C16821F06C
:101C30008001C1602068C16841F04001C160D8E7FF
:101C4000206A0088C0F308004860206A801C206277
:101C5000E5E74006CDD55006CBD5CA68204622F030
:101C60004002CA6084F83D3000F07DF9C1E7000011
:101C7000BF23000870B5040004D094F83D0000258F
:101C800010B106E0012070BD84F83C50204600F001
:101C900023F8242084F83D002068C16821F4005115
:101CA000C160204600F01AFC2068016921F49041CF
:101CB00001612068416921F02A0141612068C16801
:101CC00041F40051C1602564202084F83D0084F86F
:101CD0003E00002070BD0000F0B587B0044614211E
:101CE0006846FEF7A5FA3D4B276800223C490224CE
:101CF000032507263B489F4221D1394B14331F68E7
:101D000047F010071F601B6803F0100305930B6872
:101D100043F001030B60096802AB01F0010105917A
:101D20006902CDE9001483E864006946FFF708F80A
:101D3000002211462520FFF76BF9252024E0284BCF
:101D4000DFF8A4C01033674522D11F6847F400377D
:101D50001F601B6803F4003305930B6843F0010315
:101D60000B60096802AF01F0010105910C21CDE97A
:101D7000001487E864006946FEF7E2FF002211467E
:101D80002620FFF745F92620FFF734F907B0F0BD0C
:101D900016488742FAD1186840F480201860186805
:101DA00000F480200590086840F00400086008688E
:101DB00002AF00F0040005904FF44060CDE900044C
:101DC00087E8640069460A48FEF7BAFF0022114618
:101DD0002720FFF71DF92720D6E70000001001405B
:101DE00030380240000002400044004000480040FB
:101DF0000008024090F83E30202B0ED159B152B16C
:101E000090F83C30012B08D0012380F83C300023AF
:101E1000036300F0E9BB0120704702207047000017
:101E20002DE9F0411D4C00254FF4807620784FF6C7
:101E3000FF77FF280BD3257031461948FEF7F8F9D4
:101E40003B460A2217A11A4800F034F81DE0144955
:101E500062780A54401CC2B28818227010F8011C23
:101E60000A2912D110F8020C0D280ED13B460C495C
:101E70000F4800F01FF80E48FFF7C3FD2128FAD0E5
:101E8000257031460648FEF7D3F9BDE8F041034915
:101E90000122491C0648FFF7ADBF000000000020EA
:101EA0001C000020CAFDBEDDD2E7B3F60000000032
:101EB0009C0200202DE9F843044690F83D001F469F
:101EC00016460D4620284CD1C5B1BEB194F83C0051
:101ED000012846D0012084F83C004FF00008C4F8E7
:101EE0004080212084F83D00FFF722F8A684814637
:101EF000E684A068B0F5805F03D004E00120BDE86F
:101F0000F883206928B12E465FF0000584F83C80F4
:101F10000EE00026FAE78021204600F082FBA0B9FF
:101F2000AEB116F8010B21684860E08C401EE084D9
:101F3000E08C4B464FF0000200970028EBD14FF0A9
:101F40004001204600F06DFB30B10320D7E735F8A3
:101F5000020BC0F30800E6E7202084F83D000020D3
:101F6000CDE70220CBE77047FEE70000104810B530
:101F70000E4901600421416000214FF4302281604C
:101F8000C0E903124FF4E002426101760122427679
:101F90008276C27601774177FEF773FC002803D082
:101FA000BDE81040FEF7FBB910BD00000064004022
:101FB000A4010020104810B50E49016004214160C1
:101FC00000214FF430228160C0E903124FF4E00297
:101FD00042610176012242768276C27601774177AC
:101FE000FEF74FFC002803D0BDE81040FEF7D7B93C
:101FF00010BD000000680040CC010020114808B569
:10200000016841F080010160016801F080010091E8
:10201000016841F001010160016801F001010091D6
:10202000016841F002010160016801F002010091C4
:10203000016841F004010160006800F004000090B4
:1020400008BD00003038024010B586B000241748A3
:10205000009401940294039404944FF080410594F9
:10206000016042F2CF01C0E9011441F28731C0E9B9
:10207000031480218161FFF7FDFA08B1FEF78FF9A3
:102080004FF48050009069460848FFF791FB08B173
:10209000FEF785F9049404A904480594FFF7A2FA11
:1020A000002801D0FEF77BF906B010BD0C0200201D
:1020B00010B586B00024184800940194029403944B
:1020C000049414490594016042F2CF01C0E901145F
:1020D00041F28731C0E9031480218161FFF7CAFA18
:1020E00008B1FEF75CF94FF48050009069460A4849
:1020F000FFF75EFB08B1FEF752F9049404A9064805
:102100000594FFF76FFA002801D0FEF748F906B0F2
:1021100010BD000000040040540200200C4810B51F
:102120000A4901604FF4E1314160002181600C22D5
:10213000C160C0E904128161C161FFF79BFD002805
:1021400003D0BDE81040FEF72AB910BD00100140D1
:102150009C0200200C4810B50A4901604FF4E1319F
:102160004160002181600C22C160C0E904128161DC
:10217000C161FFF77FFD002803D0BDE81040FEF7E6
:102180000EB910BD00440040E00200200C4810B51C
:102190000A4901604FF4E1314160002181600C2265
:1021A000C160C0E904128161C161FFF763FD0028CD
:1021B00003D0BDE81040FEF7F2B810BD0048004063
:1021C00024030020FEE7FEE770477047FEF7B6BE27
:1021D00030B593B030216846FEF72AF814210CA8D8
:1021E000FEF726F81D480025016841F08051016086
:1021F000006800F0805011901948016841F4804156
:1022000001600068022400F48040119001200390D6
:1022100010200490009406940820CDE90750A820CF
:10222000CDE9090404200B906846FFF70FF808B1C8
:1022300072B6FEE70CA90F2081E831004FF4A050E0
:102240000F904FF48050109005210CA8FEF712FF5C
:10225000002801D072B6FEE713B030BD403802400E
:10226000007000400248016841F47001016070474D
:1022700088ED00E00148FFF70ABB00000C020020D7
:102280000148FFF704BB000054020020F0B50268CB
:10229000254C264D264E274F274B4FF0804CA04211
:1022A00009D0604507D0A84205D0B04203D0B8425B
:1022B00001D0984204D122F0700E4A6842EA0E0220
:1022C000A0421BD0604519D0A84217D0B04215D00B
:1022D000B84213D0984211D0184DA8420ED0184DD4
:1022E000A8420BD0174DA84208D0174DA84205D0E0
:1022F000164DA84202D0164DA84203D122F44075D3
:10230000CA682A434D6922F080022A4302608A6823
:10231000C2620A688262A04201D0984201D1096972
:10232000016301214161F0BD000001400004004053
:1023300000080040000C0040000401400040014043
:10234000004401400048014000180040001C0040CB
:102350000020004010B5846842EA032224F47F4440
:102360000A432243826010BD826822F070020A4351
:1023700042F007018160704710B5036A046A24F0D7
:1023800001040462846924F0F00444EA021423F096
:102390000A020A438461026210BD10B5036A23F089
:1023A000100303628369046A23F4704343EA023230
:1023B00024F0A00343EA01118261016210BD10B54F
:1023C000806B0021C185C184FFF71AFB10BD016835
:1023D0000C3151E8002F22F4907241E80023002BC9
:1023E000F5D10168143151E8002F22F0010241E8D3
:1023F0000023002BF5D1016B012909D101680C31B3
:1024000051E8002F22F0100241E80023002BF5D103
:10241000202180F83E1000210163704708B590F834
:102420003E10222901D0022008BD82684FF480535B
:102430009A4201D1016921B1816A9A421BD04AB105
:102440000AE00268816A5268C2F308020A80816A5F
:10245000891C08E0026972B10268526802F07F02CA
:102460000A70816A491C8162C18D491E0904090CE8
:10247000C18503D019E002685268F1E70168CA68B3
:1024800022F02002CA600168CA6822F48072CA6021
:1024900001684A6922F001024A61202180F83E1059
:1024A000016B012903D0FFF7BBFC002008BD002110
:1024B000016301680C3151E8002F22F0100241E85D
:1024C0000023002BF5D101680A68D20602D50A68FC
:1024D00049680091818DFFF792FAE6E770B50446EE
:1024E00000680169E26821F44051114301612169EA
:1024F000A068E26908436169114308432168CA681A
:1025000049F20C639A430243CA6020684169A26998
:1025100021F440711143416131492068884202D061
:102520003049884202D1FEF74FFE01E0FEF73CFE43
:10253000E2690023192164253226B2F5004F626852
:1025400028D0A0FB0101930F9200FDF739FE014650
:10255000B0FBF5F06FF01802504301EB800006EB82
:102560000010B0FBF5F000F0F002B1FBF5F002EB6B
:102570000012B1FBF5F06FF01803584301EB800037
:1025800006EB0010B0FBF5F000F00F0021681044DE
:10259000886070BDA0FB010192185B41FDF710FE41
:1025A0000146B0FBF5F00201B1FBF5F06FF0180346
:1025B000584301EB800006EBC000B0FBF5F000F0E3
:1025C000F80002EB4002B1FBF5F0584301EB80004C
:1025D00006EBC000B0FBF5F000F00700D6E7000006
:1025E000001001400014014081628285C2850021F3
:1025F0000164222280F83E2080F83C10016921B15C
:102600000168CA6842F48072CA6001684A6942F08F
:1026100001024A610068C16841F02001C1600020E8
:1026200070472DE9F041984617460E460446069D30
:1026300027E0681C25D02DB1FEF77AFCA0EB08003E
:10264000A8421ED920680C3050E8001F21F4D07138
:1026500040E80012002AF5D12068143050E8001F2D
:1026600021F0010140E80012002AF5D1202084F871
:102670003D0084F83E00002084F83C000320BDE8C3
:10268000F0812068006836EA000004D00020B842DB
:10269000CFD00020F3E70120F9E700000148FFF761
:1026A000B5B900009C0200200148FFF7AFB9000057
:1026B000E00200200148FFF7A9B900002403002030
:1026C000FEE700000FB4054B10B503A9044A0298B9
:1026D00000F028F810BC5DF814FB00007928000811
:1026E000180000200907090E002804DB00F1E02093
:1026F00080F80014704700F00F0000F1E02080F82F
:10270000141D704702E008C8121F08C1002AFAD140
:1027100070477047002001E001C1121F002AFBD161
:10272000704700002DE9FF4F89B09B460446002505
:1027300006E025280BD05A460B999047641C6D1C67
:1027400020780028F5D10DB02846BDE8F08F00278D
:10275000B8460122474900E0074314F8013F203BF7
:1027600002FA03F00842F7D120782E2819D114F884
:10277000010F47F004072A280ED06FF02F022078AF
:10278000A0F1300109290CD808EB880102EB4101C6
:1027900000EB0108641CF2E70A98641C50F8048BF3
:1027A0000A9020780028CED0642808D0692806D066
:1027B00075281ED05A460B9990476D1C58E00A990F
:1027C0004FF00A0901C90A91002802DA40422D217E
:1027D00002E0390504D52B218DF82010012103E0FA
:1027E000F90704D02021F7E78A4608AE0DE0002162
:1027F000FAE70A994FF00A0901C90A91F7E7494631
:10280000FDF721FD303106F8011D0028F7D1ADEBB1
:10281000060000F12009780701D44FF00108C845EF
:1028200002DDA8EB090000E000208046002706E05A
:1028300008A85A46C05D0B9990476D1C7F1C5745F0
:10284000F6DB04E030205A460B9990476D1CB8F136
:102850000001A8F10108F5DC05E016F8010B5A4665
:102860000B9990476D1CB9F10001A9F10109F4DC45
:10287000641C65E70928010013B54FF6FF730122B8
:1028800069460248FFF716FB00981CBD9C02002019
:102890001FB5FEF75BFBFFF79BFCFFF7AFFBFFF7F6
:1028A00065FBFFF787FBFFF7CFFBFFF701FCFFF7A7
:1028B00035FCFFF74FFCFFF769FC0B48FEF738FFCC
:1028C000FDF74EFD012209490948FFF793FA09A3D4
:1028D0000FCB8DE80F004FF6FF730F2269460448B7
:1028E000FFF7E8FAFEE700000C02002001000020DC
:1028F0009C02002043414ED7DCCFDF2DC6F4B6AF9B
:1029000000000000000000000000000001020304BD
:102910000607080900000000010203043C29000822
:10292000000000201C0000000427000858290008AF
:102930001C0000204C0700001427000800000000C5
:102940000000000001000000100000000000000076
:082950000024F4000000000067
:040000050800018965
:00000001FF
